{
  "_format": "hh-sol-artifact-1",
  "contractName": "GenZero",
  "sourceName": "contracts/GenZero.sol",
  "abi": [
    {
      "inputs": [],
      "stateMutability": "nonpayable",
      "type": "constructor"
    },
    {
      "inputs": [],
      "name": "ApprovalCallerNotOwnerNorApproved",
      "type": "error"
    },
    {
      "inputs": [],
      "name": "ApprovalQueryForNonexistentToken",
      "type": "error"
    },
    {
      "inputs": [],
      "name": "ApprovalToCurrentOwner",
      "type": "error"
    },
    {
      "inputs": [],
      "name": "ApproveToCaller",
      "type": "error"
    },
    {
      "inputs": [],
      "name": "BalanceQueryForZeroAddress",
      "type": "error"
    },
    {
      "inputs": [],
      "name": "MintToZeroAddress",
      "type": "error"
    },
    {
      "inputs": [],
      "name": "MintZeroQuantity",
      "type": "error"
    },
    {
      "inputs": [],
      "name": "OwnerQueryForNonexistentToken",
      "type": "error"
    },
    {
      "inputs": [],
      "name": "TransferCallerNotOwnerNorApproved",
      "type": "error"
    },
    {
      "inputs": [],
      "name": "TransferFromIncorrectOwner",
      "type": "error"
    },
    {
      "inputs": [],
      "name": "TransferToNonERC721ReceiverImplementer",
      "type": "error"
    },
    {
      "inputs": [],
      "name": "TransferToZeroAddress",
      "type": "error"
    },
    {
      "inputs": [],
      "name": "URIQueryForNonexistentToken",
      "type": "error"
    },
    {
      "anonymous": false,
      "inputs": [
        {
          "indexed": true,
          "internalType": "address",
          "name": "owner",
          "type": "address"
        },
        {
          "indexed": true,
          "internalType": "address",
          "name": "approved",
          "type": "address"
        },
        {
          "indexed": true,
          "internalType": "uint256",
          "name": "tokenId",
          "type": "uint256"
        }
      ],
      "name": "Approval",
      "type": "event"
    },
    {
      "anonymous": false,
      "inputs": [
        {
          "indexed": true,
          "internalType": "address",
          "name": "owner",
          "type": "address"
        },
        {
          "indexed": true,
          "internalType": "address",
          "name": "operator",
          "type": "address"
        },
        {
          "indexed": false,
          "internalType": "bool",
          "name": "approved",
          "type": "bool"
        }
      ],
      "name": "ApprovalForAll",
      "type": "event"
    },
    {
      "anonymous": false,
      "inputs": [
        {
          "indexed": true,
          "internalType": "address",
          "name": "account",
          "type": "address"
        },
        {
          "indexed": false,
          "internalType": "uint256",
          "name": "amount",
          "type": "uint256"
        }
      ],
      "name": "Claimed",
      "type": "event"
    },
    {
      "anonymous": false,
      "inputs": [
        {
          "indexed": false,
          "internalType": "uint256",
          "name": "tokenId",
          "type": "uint256"
        },
        {
          "indexed": false,
          "internalType": "string",
          "name": "newBaseURI",
          "type": "string"
        }
      ],
      "name": "GenUpdated",
      "type": "event"
    },
    {
      "anonymous": false,
      "inputs": [
        {
          "indexed": false,
          "internalType": "bytes32",
          "name": "merkleRoot",
          "type": "bytes32"
        }
      ],
      "name": "MerkleRootChanged",
      "type": "event"
    },
    {
      "anonymous": false,
      "inputs": [
        {
          "indexed": true,
          "internalType": "address",
          "name": "previousOwner",
          "type": "address"
        },
        {
          "indexed": true,
          "internalType": "address",
          "name": "newOwner",
          "type": "address"
        }
      ],
      "name": "OwnershipTransferred",
      "type": "event"
    },
    {
      "anonymous": false,
      "inputs": [
        {
          "indexed": true,
          "internalType": "address",
          "name": "from",
          "type": "address"
        },
        {
          "indexed": true,
          "internalType": "address",
          "name": "to",
          "type": "address"
        },
        {
          "indexed": true,
          "internalType": "uint256",
          "name": "tokenId",
          "type": "uint256"
        }
      ],
      "name": "Transfer",
      "type": "event"
    },
    {
      "inputs": [
        {
          "internalType": "address",
          "name": "to",
          "type": "address"
        },
        {
          "internalType": "uint256",
          "name": "tokenId",
          "type": "uint256"
        }
      ],
      "name": "approve",
      "outputs": [],
      "stateMutability": "nonpayable",
      "type": "function"
    },
    {
      "inputs": [
        {
          "internalType": "uint256",
          "name": "numberOfGens",
          "type": "uint256"
        },
        {
          "internalType": "bytes32[]",
          "name": "merkleProof",
          "type": "bytes32[]"
        }
      ],
      "name": "arcListMint",
      "outputs": [],
      "stateMutability": "nonpayable",
      "type": "function"
    },
    {
      "inputs": [
        {
          "internalType": "address",
          "name": "owner",
          "type": "address"
        }
      ],
      "name": "balanceOf",
      "outputs": [
        {
          "internalType": "uint256",
          "name": "",
          "type": "uint256"
        }
      ],
      "stateMutability": "view",
      "type": "function"
    },
    {
      "inputs": [
        {
          "internalType": "uint256[]",
          "name": "tokenIds",
          "type": "uint256[]"
        }
      ],
      "name": "bioUpgrade",
      "outputs": [],
      "stateMutability": "payable",
      "type": "function"
    },
    {
      "inputs": [],
      "name": "bioUpgradingIsActive",
      "outputs": [
        {
          "internalType": "bool",
          "name": "",
          "type": "bool"
        }
      ],
      "stateMutability": "view",
      "type": "function"
    },
    {
      "inputs": [],
      "name": "currentSeasonalCollectionURI",
      "outputs": [
        {
          "internalType": "string",
          "name": "",
          "type": "string"
        }
      ],
      "stateMutability": "view",
      "type": "function"
    },
    {
      "inputs": [],
      "name": "flipBioUpgradingState",
      "outputs": [],
      "stateMutability": "nonpayable",
      "type": "function"
    },
    {
      "inputs": [],
      "name": "flipMintingState",
      "outputs": [],
      "stateMutability": "nonpayable",
      "type": "function"
    },
    {
      "inputs": [],
      "name": "flipPublicState",
      "outputs": [],
      "stateMutability": "nonpayable",
      "type": "function"
    },
    {
      "inputs": [
        {
          "internalType": "address",
          "name": "from",
          "type": "address"
        }
      ],
      "name": "getAllowListMinted",
      "outputs": [
        {
          "internalType": "uint256",
          "name": "",
          "type": "uint256"
        }
      ],
      "stateMutability": "view",
      "type": "function"
    },
    {
      "inputs": [
        {
          "internalType": "uint256",
          "name": "tokenId",
          "type": "uint256"
        }
      ],
      "name": "getApproved",
      "outputs": [
        {
          "internalType": "address",
          "name": "",
          "type": "address"
        }
      ],
      "stateMutability": "view",
      "type": "function"
    },
    {
      "inputs": [
        {
          "internalType": "address",
          "name": "owner",
          "type": "address"
        },
        {
          "internalType": "address",
          "name": "operator",
          "type": "address"
        }
      ],
      "name": "isApprovedForAll",
      "outputs": [
        {
          "internalType": "bool",
          "name": "",
          "type": "bool"
        }
      ],
      "stateMutability": "view",
      "type": "function"
    },
    {
      "inputs": [],
      "name": "maxGenZero",
      "outputs": [
        {
          "internalType": "uint256",
          "name": "",
          "type": "uint256"
        }
      ],
      "stateMutability": "view",
      "type": "function"
    },
    {
      "inputs": [],
      "name": "maxPerMint",
      "outputs": [
        {
          "internalType": "uint256",
          "name": "",
          "type": "uint256"
        }
      ],
      "stateMutability": "view",
      "type": "function"
    },
    {
      "inputs": [],
      "name": "merkleRoot",
      "outputs": [
        {
          "internalType": "bytes32",
          "name": "",
          "type": "bytes32"
        }
      ],
      "stateMutability": "view",
      "type": "function"
    },
    {
      "inputs": [],
      "name": "mintPrice",
      "outputs": [
        {
          "internalType": "uint256",
          "name": "",
          "type": "uint256"
        }
      ],
      "stateMutability": "view",
      "type": "function"
    },
    {
      "inputs": [],
      "name": "mintingIsActive",
      "outputs": [
        {
          "internalType": "bool",
          "name": "",
          "type": "bool"
        }
      ],
      "stateMutability": "view",
      "type": "function"
    },
    {
      "inputs": [],
      "name": "name",
      "outputs": [
        {
          "internalType": "string",
          "name": "",
          "type": "string"
        }
      ],
      "stateMutability": "view",
      "type": "function"
    },
    {
      "inputs": [
        {
          "internalType": "address",
          "name": "claimer",
          "type": "address"
        },
        {
          "internalType": "bytes32[]",
          "name": "proof",
          "type": "bytes32[]"
        }
      ],
      "name": "onAllowList",
      "outputs": [
        {
          "internalType": "bool",
          "name": "",
          "type": "bool"
        }
      ],
      "stateMutability": "view",
      "type": "function"
    },
    {
      "inputs": [],
      "name": "owner",
      "outputs": [
        {
          "internalType": "address",
          "name": "",
          "type": "address"
        }
      ],
      "stateMutability": "view",
      "type": "function"
    },
    {
      "inputs": [
        {
          "internalType": "uint256",
          "name": "tokenId",
          "type": "uint256"
        }
      ],
      "name": "ownerOf",
      "outputs": [
        {
          "internalType": "address",
          "name": "",
          "type": "address"
        }
      ],
      "stateMutability": "view",
      "type": "function"
    },
    {
      "inputs": [],
      "name": "publicIsActive",
      "outputs": [
        {
          "internalType": "bool",
          "name": "",
          "type": "bool"
        }
      ],
      "stateMutability": "view",
      "type": "function"
    },
    {
      "inputs": [
        {
          "internalType": "uint256",
          "name": "numberOfGens",
          "type": "uint256"
        }
      ],
      "name": "publicMint",
      "outputs": [],
      "stateMutability": "payable",
      "type": "function"
    },
    {
      "inputs": [],
      "name": "renounceOwnership",
      "outputs": [],
      "stateMutability": "nonpayable",
      "type": "function"
    },
    {
      "inputs": [
        {
          "internalType": "address",
          "name": "from",
          "type": "address"
        },
        {
          "internalType": "address",
          "name": "to",
          "type": "address"
        },
        {
          "internalType": "uint256",
          "name": "tokenId",
          "type": "uint256"
        }
      ],
      "name": "safeTransferFrom",
      "outputs": [],
      "stateMutability": "nonpayable",
      "type": "function"
    },
    {
      "inputs": [
        {
          "internalType": "address",
          "name": "from",
          "type": "address"
        },
        {
          "internalType": "address",
          "name": "to",
          "type": "address"
        },
        {
          "internalType": "uint256",
          "name": "tokenId",
          "type": "uint256"
        },
        {
          "internalType": "bytes",
          "name": "_data",
          "type": "bytes"
        }
      ],
      "name": "safeTransferFrom",
      "outputs": [],
      "stateMutability": "nonpayable",
      "type": "function"
    },
    {
      "inputs": [
        {
          "internalType": "bytes32",
          "name": "merkleRoot",
          "type": "bytes32"
        }
      ],
      "name": "setAllowList",
      "outputs": [],
      "stateMutability": "nonpayable",
      "type": "function"
    },
    {
      "inputs": [
        {
          "internalType": "address",
          "name": "operator",
          "type": "address"
        },
        {
          "internalType": "bool",
          "name": "approved",
          "type": "bool"
        }
      ],
      "name": "setApprovalForAll",
      "outputs": [],
      "stateMutability": "nonpayable",
      "type": "function"
    },
    {
      "inputs": [
        {
          "internalType": "string",
          "name": "newuri",
          "type": "string"
        }
      ],
      "name": "setCurrentCollectionBaseURI",
      "outputs": [],
      "stateMutability": "nonpayable",
      "type": "function"
    },
    {
      "inputs": [
        {
          "internalType": "uint256",
          "name": "newMax",
          "type": "uint256"
        }
      ],
      "name": "setMintMax",
      "outputs": [],
      "stateMutability": "nonpayable",
      "type": "function"
    },
    {
      "inputs": [
        {
          "internalType": "uint256",
          "name": "newPrice",
          "type": "uint256"
        }
      ],
      "name": "setMintPrice",
      "outputs": [],
      "stateMutability": "nonpayable",
      "type": "function"
    },
    {
      "inputs": [
        {
          "internalType": "bytes4",
          "name": "interfaceId",
          "type": "bytes4"
        }
      ],
      "name": "supportsInterface",
      "outputs": [
        {
          "internalType": "bool",
          "name": "",
          "type": "bool"
        }
      ],
      "stateMutability": "view",
      "type": "function"
    },
    {
      "inputs": [],
      "name": "symbol",
      "outputs": [
        {
          "internalType": "string",
          "name": "",
          "type": "string"
        }
      ],
      "stateMutability": "view",
      "type": "function"
    },
    {
      "inputs": [
        {
          "internalType": "uint256",
          "name": "tokenId",
          "type": "uint256"
        }
      ],
      "name": "tokenURI",
      "outputs": [
        {
          "internalType": "string",
          "name": "",
          "type": "string"
        }
      ],
      "stateMutability": "view",
      "type": "function"
    },
    {
      "inputs": [],
      "name": "totalSupply",
      "outputs": [
        {
          "internalType": "uint256",
          "name": "",
          "type": "uint256"
        }
      ],
      "stateMutability": "view",
      "type": "function"
    },
    {
      "inputs": [
        {
          "internalType": "address",
          "name": "from",
          "type": "address"
        },
        {
          "internalType": "address",
          "name": "to",
          "type": "address"
        },
        {
          "internalType": "uint256",
          "name": "tokenId",
          "type": "uint256"
        }
      ],
      "name": "transferFrom",
      "outputs": [],
      "stateMutability": "nonpayable",
      "type": "function"
    },
    {
      "inputs": [
        {
          "internalType": "address",
          "name": "newOwner",
          "type": "address"
        }
      ],
      "name": "transferOwnership",
      "outputs": [],
      "stateMutability": "nonpayable",
      "type": "function"
    },
    {
      "inputs": [],
      "name": "withdraw",
      "outputs": [],
      "stateMutability": "nonpayable",
      "type": "function"
    }
  ],
  "bytecode": "0x60806040526064600c55600d805462ffffff191690553480156200002257600080fd5b50604080518082018252601081526f08ae8cae4dcd2e8f24086dedae0d8caf60831b60208083019182528351808501909452600784526647656e5a65726f60c81b9084015281519192916200007a91600291620000ff565b50805162000090906003906020840190620000ff565b50506000805550620000a233620000ad565b6001600b55620001e2565b600a80546001600160a01b038381166001600160a01b0319831681179093556040519116919082907f8be0079c531659141344cd1fd0a4f28419497f9722a3daafe3b4186f6b6457e090600090a35050565b8280546200010d90620001a5565b90600052602060002090601f0160209004810192826200013157600085556200017c565b82601f106200014c57805160ff19168380011785556200017c565b828001600101855582156200017c579182015b828111156200017c5782518255916020019190600101906200015f565b506200018a9291506200018e565b5090565b5b808211156200018a57600081556001016200018f565b600181811c90821680620001ba57607f821691505b60208210811415620001dc57634e487b7160e01b600052602260045260246000fd5b50919050565b61271580620001f26000396000f3fe6080604052600436106102255760003560e01c80636352211e11610123578063a216a49d116100ab578063c87b56dd1161006f578063c87b56dd14610607578063e985e9c514610627578063f2fde38b14610670578063f4a0a52814610690578063f655ff22146106b057600080fd5b8063a216a49d14610568578063a22cb46514610587578063afc3cb49146105a7578063b32c5680146105c7578063b88d4fde146105e757600080fd5b80637efd1a68116100f25780637efd1a68146104eb57806384584d0714610500578063882b1808146105205780638da5cb5b1461053557806395d89b411461055357600080fd5b80636352211e146104805780636817c76c146104a057806370a08231146104b6578063715018a6146104d657600080fd5b80632bad62e5116101b157806342842e0e1161017557806342842e0e146103da5780634728b9f4146103fa578063507e094f146104145780635a504e741461042a5780635ea1ef521461044a57600080fd5b80632bad62e5146103715780632db11544146103875780632eb4a7ab1461039a57806333cc4c29146103b05780633ccfd60b146103c557600080fd5b8063095ea7b3116101f8578063095ea7b3146102d957806318160ddd146102fb578063184c4a3f1461031e5780631e2a23c01461033e57806323b872dd1461035157600080fd5b806301ffc9a71461022a578063033a02d61461025f57806306fdde031461027f578063081812fc146102a1575b600080fd5b34801561023657600080fd5b5061024a610245366004612327565b6106c5565b60405190151581526020015b60405180910390f35b34801561026b57600080fd5b50600d5461024a9062010000900460ff1681565b34801561028b57600080fd5b50610294610717565b604051610256919061247a565b3480156102ad57600080fd5b506102c16102bc36600461230f565b6107a9565b6040516001600160a01b039091168152602001610256565b3480156102e557600080fd5b506102f96102f4366004612254565b6107ed565b005b34801561030757600080fd5b50600154600054035b604051908152602001610256565b34801561032a57600080fd5b506102f96103393660046123a4565b610874565b6102f961034c36600461227d565b610a7a565b34801561035d57600080fd5b506102f961036c36600461211c565b610d50565b34801561037d57600080fd5b5061031061177081565b6102f961039536600461230f565b610d5b565b3480156103a657600080fd5b5061031060085481565b3480156103bc57600080fd5b50610294610f60565b3480156103d157600080fd5b506102f9610fee565b3480156103e657600080fd5b506102f96103f536600461211c565b611043565b34801561040657600080fd5b50600d5461024a9060ff1681565b34801561042057600080fd5b50610310600c5481565b34801561043657600080fd5b506102f961044536600461235f565b61105e565b34801561045657600080fd5b506103106104653660046120d0565b6001600160a01b031660009081526009602052604090205490565b34801561048c57600080fd5b506102c161049b36600461230f565b611079565b3480156104ac57600080fd5b50610310600f5481565b3480156104c257600080fd5b506103106104d13660046120d0565b61108b565b3480156104e257600080fd5b506102f96110d9565b3480156104f757600080fd5b506102f96110ed565b34801561050c57600080fd5b506102f961051b36600461230f565b611112565b34801561052c57600080fd5b506102f9611123565b34801561054157600080fd5b50600a546001600160a01b03166102c1565b34801561055f57600080fd5b5061029461114a565b34801561057457600080fd5b50600d5461024a90610100900460ff1681565b34801561059357600080fd5b506102f96105a236600461221a565b611159565b3480156105b357600080fd5b506102f96105c236600461230f565b6111ef565b3480156105d357600080fd5b5061024a6105e23660046121cf565b6111fc565b3480156105f357600080fd5b506102f9610602366004612157565b61124d565b34801561061357600080fd5b5061029461062236600461230f565b611297565b34801561063357600080fd5b5061024a6106423660046120ea565b6001600160a01b03918216600090815260076020908152604080832093909416825291909152205460ff1690565b34801561067c57600080fd5b506102f961068b3660046120d0565b6113ad565b34801561069c57600080fd5b506102f96106ab36600461230f565b611423565b3480156106bc57600080fd5b506102f9611430565b60006001600160e01b031982166380ac58cd60e01b14806106f657506001600160e01b03198216635b5e139f60e01b145b8061071157506301ffc9a760e01b6001600160e01b03198316145b92915050565b6060600280546107269061261d565b80601f01602080910402602001604051908101604052809291908181526020018280546107529061261d565b801561079f5780601f106107745761010080835404028352916020019161079f565b820191906000526020600020905b81548152906001019060200180831161078257829003601f168201915b5050505050905090565b60006107b48261144c565b6107d1576040516333d1c03960e21b815260040160405180910390fd5b506000908152600660205260409020546001600160a01b031690565b60006107f882611079565b9050806001600160a01b0316836001600160a01b0316141561082d5760405163250fdee360e21b815260040160405180910390fd5b336001600160a01b03821614610864576108478133610642565b610864576040516367d9dca160e11b815260040160405180910390fd5b61086f838383611477565b505050565b338161088082826111fc565b6108c55760405162461bcd60e51b8152602060048201526011602482015270139bdd081bdb88185b1b1bddc81b1a5cdd607a1b60448201526064015b60405180910390fd5b83611770816108d76001546000540390565b6108e1919061258f565b11156109225760405162461bcd60e51b815260206004820152601060248201526f4d617820546f6b656e20537570706c7960801b60448201526064016108bc565b6002600b5414156109755760405162461bcd60e51b815260206004820152601f60248201527f5265656e7472616e637947756172643a207265656e7472616e742063616c6c0060448201526064016108bc565b6002600b55600d5460ff166109bf5760405162461bcd60e51b815260206004820152601060248201526f636c61696d206e6f742061637469766560801b60448201526064016108bc565b60008511610a025760405162461bcd60e51b815260206004820152601060248201526f63616e6e6f74206d696e74207a65726f60801b60448201526064016108bc565b60005b85811015610a5957600e6010600083600054610a21919061258f565b8152602001908152602001600020908054610a3b9061261d565b610a46929190611eda565b5080610a5181612658565b915050610a05565b50610a6433866114d3565b610a6e3386611542565b50506001600b55505050565b600d54610100900460ff16610ad15760405162461bcd60e51b815260206004820152601760248201527f42696f557067726164696e67206e6f742061637469766500000000000000000060448201526064016108bc565b34600f548251610ae191906125bb565b14610b285760405162461bcd60e51b8152602060048201526017602482015276115d1a195c881d985b1d59481b9bdd0818dbdc9c9958dd604a1b60448201526064016108bc565b60005b8151811015610c0057336001600160a01b0316610b6e838381518110610b6157634e487b7160e01b600052603260045260246000fd5b6020026020010151611079565b6001600160a01b0316141580610bb15750610baf828281518110610ba257634e487b7160e01b600052603260045260246000fd5b602002602001015161144c565b155b15610bee5760405162461bcd60e51b815260206004820152600d60248201526c11d95b881b9bdd081bdddb9959609a1b60448201526064016108bc565b80610bf881612658565b915050610b2b565b5060005b8151811015610d4c57611770828281518110610c3057634e487b7160e01b600052603260045260246000fd5b602002602001015110610c855760405162461bcd60e51b815260206004820152601760248201527f546f6b656e20657863656564206d617820737570706c7900000000000000000060448201526064016108bc565b600e60106000848481518110610cab57634e487b7160e01b600052603260045260246000fd5b60200260200101518152602001908152602001600020908054610ccd9061261d565b610cd8929190611eda565b507f266bc8906175770d5acdb15c764e656bc33c059f4339d709a51e95be76c6bc76828281518110610d1a57634e487b7160e01b600052603260045260246000fd5b6020026020010151600e604051610d3292919061248d565b60405180910390a180610d4481612658565b915050610c04565b5050565b61086f83838361155c565b8061177081610d6d6001546000540390565b610d77919061258f565b1115610db85760405162461bcd60e51b815260206004820152601060248201526f4d617820546f6b656e20537570706c7960801b60448201526064016108bc565b6002600b541415610e0b5760405162461bcd60e51b815260206004820152601f60248201527f5265656e7472616e637947756172643a207265656e7472616e742063616c6c0060448201526064016108bc565b6002600b55600d5462010000900460ff16610e5d5760405162461bcd60e51b81526020600482015260126024820152717075626c696320206e6f742061637469766560701b60448201526064016108bc565b600c54821115610e9f5760405162461bcd60e51b815260206004820152600d60248201526c1bdd995c881b585e081b5a5b9d609a1b60448201526064016108bc565b34600f5483610eae91906125bb565b14610ef55760405162461bcd60e51b8152602060048201526017602482015276115d1a195c881d985b1d59481b9bdd0818dbdc9c9958dd604a1b60448201526064016108bc565b60005b82811015610f4c57600e6010600083600054610f14919061258f565b8152602001908152602001600020908054610f2e9061261d565b610f39929190611eda565b5080610f4481612658565b915050610ef8565b50610f573383611542565b50506001600b55565b600e8054610f6d9061261d565b80601f0160208091040260200160405190810160405280929190818152602001828054610f999061261d565b8015610fe65780601f10610fbb57610100808354040283529160200191610fe6565b820191906000526020600020905b815481529060010190602001808311610fc957829003601f168201915b505050505081565b610ff6611749565b600047116110355760405162461bcd60e51b815260206004820152600c60248201526b5a65726f2062616c616e636560a01b60448201526064016108bc565b4761104033826117a3565b50565b61086f8383836040518060200160405280600081525061124d565b611066611749565b8051610d4c90600e906020840190611f65565b6000611084826118bc565b5192915050565b60006001600160a01b0382166110b4576040516323d3ad8160e21b815260040160405180910390fd5b506001600160a01b03166000908152600560205260409020546001600160401b031690565b6110e1611749565b6110eb60006119d6565b565b6110f5611749565b600d805461ff001981166101009182900460ff1615909102179055565b61111a611749565b61104081611a28565b61112b611749565b600d805462ff0000198116620100009182900460ff1615909102179055565b6060600380546107269061261d565b6001600160a01b0382163314156111835760405163b06307db60e01b815260040160405180910390fd5b3360008181526007602090815260408083206001600160a01b03871680855290835292819020805460ff191686151590811790915590519081529192917f17307eab39ab6107e8899845ad3d59bd9653f200f220920489ca2b5937696c31910160405180910390a35050565b6111f7611749565b600c55565b6040516bffffffffffffffffffffffff19606084901b16602082015260009081906034016040516020818303038152906040528051906020012090506112458360085483611a63565b949350505050565b61125884848461155c565b6001600160a01b0383163b156112915761127484848484611a79565b611291576040516368d2bf6b60e11b815260040160405180910390fd5b50505050565b60606112a28261144c565b6112e25760405162461bcd60e51b81526020600482015260116024820152703737b732bc34b9ba32b73a103a37b5b2b760791b60448201526064016108bc565b600082815260106020526040812080546112fb9061261d565b80601f01602080910402602001604051908101604052809291908181526020018280546113279061261d565b80156113745780601f1061134957610100808354040283529160200191611374565b820191906000526020600020905b81548152906001019060200180831161135757829003601f168201915b505050505090508061138584611b70565b6040516020016113969291906123fe565b604051602081830303815290604052915050919050565b6113b5611749565b6001600160a01b03811661141a5760405162461bcd60e51b815260206004820152602660248201527f4f776e61626c653a206e6577206f776e657220697320746865207a65726f206160448201526564647265737360d01b60648201526084016108bc565b611040816119d6565b61142b611749565b600f55565b611438611749565b600d805460ff19811660ff90911615179055565b6000805482108015610711575050600090815260046020526040902054600160e01b900460ff161590565b60008281526006602052604080822080546001600160a01b0319166001600160a01b0387811691821790925591518593918516917f8c5be1e5ebec7d5bd14f71427d1e84f3dd0314c0f7b2291e5b200ac8c7c3b92591a4505050565b6001600160a01b038216600090815260096020526040812080548392906114fb90849061258f565b90915550506040518181526001600160a01b038316907fd8138f8a3f377c5259ca548e70e4c2de94f129f5a11036a15b69513cba2b426a9060200160405180910390a25050565b610d4c828260405180602001604052806000815250611c89565b6000611567826118bc565b9050836001600160a01b031681600001516001600160a01b03161461159e5760405162a1148160e81b815260040160405180910390fd5b6000336001600160a01b03861614806115bc57506115bc8533610642565b806115d75750336115cc846107a9565b6001600160a01b0316145b9050806115f757604051632ce44b5f60e11b815260040160405180910390fd5b6001600160a01b03841661161e57604051633a954ecd60e21b815260040160405180910390fd5b61162a60008487611477565b6001600160a01b038581166000908152600560209081526040808320805467ffffffffffffffff198082166001600160401b0392831660001901831617909255898616808652838620805493841693831660019081018416949094179055898652600490945282852080546001600160e01b031916909417600160a01b429092169190910217835587018084529220805491939091166116fe5760005482146116fe57805460208601516001600160401b0316600160a01b026001600160e01b03199091166001600160a01b038a16171781555b50505082846001600160a01b0316866001600160a01b03167fddf252ad1be2c89b69c2b068fc378daa952ba7f163c4a11628f55a4df523b3ef60405160405180910390a45050505050565b600a546001600160a01b031633146110eb5760405162461bcd60e51b815260206004820181905260248201527f4f776e61626c653a2063616c6c6572206973206e6f7420746865206f776e657260448201526064016108bc565b804710156117f35760405162461bcd60e51b815260206004820152601d60248201527f416464726573733a20696e73756666696369656e742062616c616e636500000060448201526064016108bc565b6000826001600160a01b03168260405160006040518083038185875af1925050503d8060008114611840576040519150601f19603f3d011682016040523d82523d6000602084013e611845565b606091505b505090508061086f5760405162461bcd60e51b815260206004820152603a60248201527f416464726573733a20756e61626c6520746f2073656e642076616c75652c207260448201527f6563697069656e74206d6179206861766520726576657274656400000000000060648201526084016108bc565b6040805160608101825260008082526020820181905291810191909152816000548110156119bd57600081815260046020908152604091829020825160608101845290546001600160a01b0381168252600160a01b81046001600160401b031692820192909252600160e01b90910460ff161515918101829052906119bb5780516001600160a01b031615611952579392505050565b5060001901600081815260046020908152604091829020825160608101845290546001600160a01b038116808352600160a01b82046001600160401b031693830193909352600160e01b900460ff16151592810192909252156119b6579392505050565b611952565b505b604051636f96cda160e11b815260040160405180910390fd5b600a80546001600160a01b038381166001600160a01b0319831681179093556040519116919082907f8be0079c531659141344cd1fd0a4f28419497f9722a3daafe3b4186f6b6457e090600090a35050565b60088190556040518181527f1b930366dfeaa7eb3b325021e4ae81e36527063452ee55b86c95f85b36f4c31c9060200160405180910390a150565b600082611a708584611e4d565b14949350505050565b604051630a85bd0160e11b81526000906001600160a01b0385169063150b7a0290611aae90339089908890889060040161243d565b602060405180830381600087803b158015611ac857600080fd5b505af1925050508015611af8575060408051601f3d908101601f19168201909252611af591810190612343565b60015b611b53573d808015611b26576040519150601f19603f3d011682016040523d82523d6000602084013e611b2b565b606091505b508051611b4b576040516368d2bf6b60e11b815260040160405180910390fd5b805181602001fd5b6001600160e01b031916630a85bd0160e11b149050949350505050565b606081611b945750506040805180820190915260018152600360fc1b602082015290565b8160005b8115611bbe5780611ba881612658565b9150611bb79050600a836125a7565b9150611b98565b6000816001600160401b03811115611be657634e487b7160e01b600052604160045260246000fd5b6040519080825280601f01601f191660200182016040528015611c10576020820181803683370190505b5090505b841561124557611c256001836125da565b9150611c32600a86612673565b611c3d90603061258f565b60f81b818381518110611c6057634e487b7160e01b600052603260045260246000fd5b60200101906001600160f81b031916908160001a905350611c82600a866125a7565b9450611c14565b6000546001600160a01b038416611cb257604051622e076360e81b815260040160405180910390fd5b82611cd05760405163b562e8dd60e01b815260040160405180910390fd5b6001600160a01b038416600081815260056020908152604080832080546fffffffffffffffffffffffffffffffff1981166001600160401b038083168b0181169182176801000000000000000067ffffffffffffffff1990941690921783900481168b01811690920217909155858452600490925290912080546001600160e01b0319168317600160a01b42909316929092029190911790558190818501903b15611df8575b60405182906001600160a01b038816906000907fddf252ad1be2c89b69c2b068fc378daa952ba7f163c4a11628f55a4df523b3ef908290a4611dc16000878480600101955087611a79565b611dde576040516368d2bf6b60e11b815260040160405180910390fd5b808210611d76578260005414611df357600080fd5b611e3d565b5b6040516001830192906001600160a01b038816906000907fddf252ad1be2c89b69c2b068fc378daa952ba7f163c4a11628f55a4df523b3ef908290a4808210611df9575b5060009081556112919085838684565b600081815b8451811015611ea057611e8c82868381518110611e7f57634e487b7160e01b600052603260045260246000fd5b6020026020010151611ea8565b915080611e9881612658565b915050611e52565b509392505050565b6000818310611ec4576000828152602084905260409020611ed3565b60008381526020839052604090205b9392505050565b828054611ee69061261d565b90600052602060002090601f016020900481019282611f085760008555611f55565b82601f10611f195780548555611f55565b82800160010185558215611f5557600052602060002091601f016020900482015b82811115611f55578254825591600101919060010190611f3a565b50611f61929150611fd9565b5090565b828054611f719061261d565b90600052602060002090601f016020900481019282611f935760008555611f55565b82601f10611fac57805160ff1916838001178555611f55565b82800160010185558215611f55579182015b82811115611f55578251825591602001919060010190611fbe565b5b80821115611f615760008155600101611fda565b60006001600160401b03831115612007576120076126b3565b61201a601f8401601f191660200161253c565b905082815283838301111561202e57600080fd5b828260208301376000602084830101529392505050565b80356001600160a01b038116811461205c57600080fd5b919050565b600082601f830112612071578081fd5b813560206120866120818361256c565b61253c565b80838252828201915082860187848660051b89010111156120a5578586fd5b855b858110156120c3578135845292840192908401906001016120a7565b5090979650505050505050565b6000602082840312156120e1578081fd5b611ed382612045565b600080604083850312156120fc578081fd5b61210583612045565b915061211360208401612045565b90509250929050565b600080600060608486031215612130578081fd5b61213984612045565b925061214760208501612045565b9150604084013590509250925092565b6000806000806080858703121561216c578081fd5b61217585612045565b935061218360208601612045565b92506040850135915060608501356001600160401b038111156121a4578182fd5b8501601f810187136121b4578182fd5b6121c387823560208401611fee565b91505092959194509250565b600080604083850312156121e1578182fd5b6121ea83612045565b915060208301356001600160401b03811115612204578182fd5b61221085828601612061565b9150509250929050565b6000806040838503121561222c578182fd5b61223583612045565b915060208301358015158114612249578182fd5b809150509250929050565b60008060408385031215612266578182fd5b61226f83612045565b946020939093013593505050565b6000602080838503121561228f578182fd5b82356001600160401b038111156122a4578283fd5b8301601f810185136122b4578283fd5b80356122c26120818261256c565b80828252848201915084840188868560051b87010111156122e1578687fd5b8694505b838510156123035780358352600194909401939185019185016122e5565b50979650505050505050565b600060208284031215612320578081fd5b5035919050565b600060208284031215612338578081fd5b8135611ed3816126c9565b600060208284031215612354578081fd5b8151611ed3816126c9565b600060208284031215612370578081fd5b81356001600160401b03811115612385578182fd5b8201601f81018413612395578182fd5b61124584823560208401611fee565b600080604083850312156123b6578182fd5b8235915060208301356001600160401b03811115612204578182fd5b600081518084526123ea8160208601602086016125f1565b601f01601f19169290920160200192915050565b600083516124108184602088016125f1565b8351908301906124248183602088016125f1565b64173539b7b760d91b9101908152600501949350505050565b6001600160a01b0385811682528416602082015260408101839052608060608201819052600090612470908301846123d2565b9695505050505050565b602081526000611ed360208301846123d2565b8281526000602060408184015281845483600182811c9150808316806124b457607f831692505b8583108114156124d257634e487b7160e01b87526022600452602487fd5b60408801839052606088018180156124f157600181146125025761252c565b60ff1986168252878201965061252c565b60008b815260209020895b868110156125265781548482015290850190890161250d565b83019750505b50949a9950505050505050505050565b604051601f8201601f191681016001600160401b0381118282101715612564576125646126b3565b604052919050565b60006001600160401b03821115612585576125856126b3565b5060051b60200190565b600082198211156125a2576125a2612687565b500190565b6000826125b6576125b661269d565b500490565b60008160001904831182151516156125d5576125d5612687565b500290565b6000828210156125ec576125ec612687565b500390565b60005b8381101561260c5781810151838201526020016125f4565b838111156112915750506000910152565b600181811c9082168061263157607f821691505b6020821081141561265257634e487b7160e01b600052602260045260246000fd5b50919050565b600060001982141561266c5761266c612687565b5060010190565b6000826126825761268261269d565b500690565b634e487b7160e01b600052601160045260246000fd5b634e487b7160e01b600052601260045260246000fd5b634e487b7160e01b600052604160045260246000fd5b6001600160e01b03198116811461104057600080fdfea264697066735822122054cf5035f6ac7f55dd90323c9f6ba0729e37b6782b5258e3b191af6cce715a3664736f6c63430008040033",
  "linkReferences": {},
  "deployedLinkReferences": {}
}